:020000040800F2
:10000000100A0020050100088B1B00085516000887
:10001000891B00089902000849210008000000001F
:100020000000000000000000000000004F1E00085B
:10003000D9020008000000004D1E0008511E0008F3
:100040001F0100081F0100081F0100081F01000810
:100050001F0100081F0100081F0100081F01000800
:100060001F0100081F0100081F0100081F010008F0
:100070001F0100081F0100081F0100081F010008E0
:100080001F0100081F0100081F0100081F010008D0
:100090001F0100081F0100081F0100081F010008C0
:1000A0001F0100081F0100081F0100081F010008B0
:1000B0001F0100081F0100081F0100081F010008A0
:1000C0001F0100081F0100081F0100081F01000890
:1000D0001F0100083D2100081F0100081F01000842
:1000E0001F0100081F0100081F010008DFF810D0E1
:1000F00000F07CF800480047B9240008AFF3008006
:10010000100A00200648804706480047FEE7FEE741
:10011000FEE7FEE7FEE7FEE7FEE7FEE7FEE7FEE7B7
:10012000B31E0008ED000008202A04DB203A21FA63
:1001300002F00021704721FA02F3D040C2F1200200
:100140009140084319467047D2B201E000F8012BF4
:10015000491EFBD270470022F6E710B513460A4647
:1001600004461946FFF7F0FF204610BD2DE9F05F69
:100170000546002092469B46884606468146402416
:100180001BE02846414647462246FFF7CDFF53462F
:100190005A46C01A914110D311461846224600F023
:1001A00016F82D1A67EB01084F4622460120002160
:1001B00000F00DF817EB00094E41201EA4F10104D8
:1001C000DFDC484631462A464346BDE8F09F202AF8
:1001D00004DB203A00FA02F1002070479140C2F19E
:1001E000200320FA03F3194390407047064C074D53
:1001F00006E0E06840F0010394E8070098471034F7
:10020000AC42F6D3FFF776FFE43E0008043F000857
:1002100070B506460D46012002F0FCF9114C01466E
:100220003E28207003D03F2901D0002070BD0EA0D1
:1002300001F08CFF002002F0A1F902F017F9032071
:1002400002F0C0F902F01DF9322002F0CDF930467B
:1002500002F0A6F9284602F0CBF920780028E5D074
:10026000FF2070BD140000204153373236785F48BC
:10027000575F56455253494F4E20257800000000E5
:1002800010B5044802F074F90321BDE81040084697
:10029000FFF7BEBFBD030008FEE7000010B518233E
:1002A00007A20A21282001F08FFD102306A2282191
:1002B000142001F089FDBDE8104001F007BD0000E9
:1002C0004846555400000000506C61737469632007
:1002D000736F727400000000704772B6FEE710B5CD
:1002E00090F821100022022905D00421816380F8B2
:1002F0002020012010BD01680B6823F00E030B6065
:1003000001680B6823F001030B6090F84030C46B68
:10031000012101FA03F3636080F8211080F82020A6
:10032000104610BD10B590F821100024022903D00A
:100330000421816301243DE001680A6822F00E0275
:100340000A6001680A6822F001020A601A4A01681C
:10035000914201D1012121E0174A1432914201D189
:1003600010211BE0144A2832914201D1891515E071
:10037000114A3C32914201D189140FE00E4A5032A9
:10038000914202D14FF4803108E00B4A643291422D
:1003900002D14FF4801101E04FF08071064A083A13
:1003A0005160012180F82110002180F82010416B5C
:1003B00001B18847204610BD0800024070B50446D0
:1003C00000F0FEF80546601C02D0044800780444A2
:1003D00000F0F6F8401BA042FAD370BD04000020E4
:1003E0002DE9F84FDFF8B8910024A9F1040B23465A
:1003F0000F2709F1040AABF1040EC9E00125A5405D
:100400002A40AA427DD1674ED1F804C0ACEB060861
:10041000B44532D014DCBCF1030F3AD009DCBCF196
:10042000000F2AD0BCF1010F1CD0BCF1020F31D15A
:100430001DE0BCF1110F17D0BCF1120F2AD119E049
:10044000B8F5881F19D006DCB8F5803F15D0B8F58F
:10045000801F1FD111E0B8F5001F0ED0B8F5041FA2
:1004600018D10AE0CB6815E0CB681B1D12E0CB6801
:1004700008330FE0CB680C330CE08B682BB1012BF9
:100480004FF0080303D0456104E0042302E0056156
:1004900000E00023FF2A01D8064601E000F104062F
:1004A0004FEA840501D9A5F12005D6F8008007FAA6
:1004B00005FC28EA0C0803FA05F548EA0508C6F821
:1004C00000804D68ED0062D5374DAE6946F00106FB
:1004D000AE61AD6924F0030605F001050095334DCA
:1004E00006EB050CDCF80850A607360F07FA06F8ED
:1004F00025EA0805DFF8B880404503D14FF0000831
:1005000017E044E0DFF8AC80404502D14FF001082D
:100510000FE0DFF8A480404502D14FF0020808E068
:10052000DFF89880404502D14FF0030801E04FF01A
:10053000040808FA06F848EA0508CCF808804D686F
:10054000D9F80060ED024D4601D5164300E0964310
:100550002E604D68DAF80060AD02554601D51643AD
:1005600000E096432E604D68DBF80060AD035D4609
:1005700001D5164300E096432E604D68DEF800601A
:10058000ED03754601D5164300E096432E60641CCA
:100590000D682A46E5407FF431AFBDE8F88F0000D2
:1005A000080401400000111000100240000001404A
:1005B00000080140000C01400010014000140140FF
:1005C00001488068704700000400002070B50400F6
:1005D00025D094F83D00002520B984F83C502046F1
:1005E00000F078FA242084F83D002068016821F0AA
:1005F000010101602068016841F400410160206848
:10060000016821F40041016000F0DEFB4D4A6168A1
:10061000914201D84C4900E04C49884201D2012066
:1006200070BD4B492368B0FBF1F15E6826F03F06D0
:100630000E435E606368934206D94FF49673594344
:100640004FF47A73B1FBF3F12368491C1E6A26F05C
:100650003F06314319626168914210D84900401E3B
:10066000B0FBF1F2521CC2F30B02042A01D20420A7
:1006700022E0B0FBF1F0401CC0F30B001CE0A268CC
:10068000F2B301EBC10303EB0116431EB3FBF6F318
:100690005B1C43F480431B0549D092B301EBC102BC
:1006A00002EB0111401EB0FBF1F0401CC0F30B0047
:1006B00040F4804040F400402168CA694CF6FF7362
:1006C0009A431043C861D4E90710014320680268C7
:1006D00022F0C00211430160D4E903010143206804
:1006E000826848F2FF339A4311438160D4E90501DF
:1006F00008432168CA6822F0FF021043C86001E085
:100700000EE016E02068016841F0010101602564F7
:10071000202084F83D00256384F83E50002070BD01
:1007200001EB4106431EB3FBF6F35B1CB3E701206C
:10073000C2E701EB4101401EB0FBF1F0401CC0F3E9
:100740000B00B7E7A086010080841E0000093D0071
:1007500040420F002DE9FF4F83B00025DDE91079FD
:100760009A4693460446DDF848800095FFF728FF37
:10077000064694F83D0020287CD1192301228549A2
:100780002046009601F07CF80028F5D194F83C0052
:1007900001286FD0012084F83C0020680168C90757
:1007A00003D1016841F0010101602068016821F472
:1007B00000610160222084F83D00402084F83E0062
:1007C00025646762A4F82A90608D20857248E062F3
:1007D000CDE9008653465A462046049900F052FF60
:1007E00000287DD1208DDFF8B491202768B1012841
:1007F00014D00228206801681ED041F48061016095
:100800002068416980690090B6E02068416981698B
:100810000091016841F400710160ADE02068016859
:1008200021F48061016072B620684169816900919C
:10083000016841F400710AE041F40061016072B6A0
:100840002068416981690091016821F4806101603B
:1008500062B691E0032868D801280CD002284346EC
:100860004FF000024946204600960FD001F008F8EC
:10087000B0BB10E08BE032464146204601F0A6F8BE
:1008800070BB20680069616A08706CE000F0F8FFD6
:1008900030BB72B634E02068016821F480610160E9
:1008A00072B620680069616A0870606A401C606204
:1008B000208D401E2085608D401E6085384846F2A0
:1008C000A8110068B0FBF1F0C0EBC00000EB8000A5
:1008D0000090401E009008D020684069C04300E0AE
:1008E00029E040070CD50098F3E744F8305F6773C0
:1008F000A573206940F02000206162B625731AE0DC
:100900002068016841F40071016020680069616A33
:100910000870606A401C6062218D491E2185618DCE
:10092000491E618562B621681BE032464146204679
:1009300001F04CF818B1012007B0BDE8F08F206835
:100940000069616A0870606A401C6062218D491EFE
:100950002185618D491E618521684A69D24352070C
:100960000AD409690170606A401C6062208D401ED3
:100970002085608D401E6085208D00287FF46AAF41
:1009800084F83D7084F83E5084F83C50D4E702204F
:10099000D2E70000020010000000FFFF0400010089
:1009A000100000202DE9FF4F83B09A46DDE9119732
:1009B00093460446DDF84080FFF702FE054694F8B2
:1009C0003D0020287FD1192301224049204600956F
:1009D00000F056FF002876D194F83C00012872D030
:1009E000012084F83C0020680168C90703D1016830
:1009F00041F0010101602068016821F4006101609B
:100A0000212084F83D00402084F83E000026266422
:100A1000C4F82480A4F82A90608D20852C48E062D8
:100A2000CDE9007553465A462046049900F0A8FEC9
:100A300070B930E02A463946204600F0FFFF58B131
:100A4000206C042804D12068016841F40071016021
:100A5000012007B0BDE8F08F606A21680078086166
:100A6000606A401C6062218D491E89B22185628DB9
:100A7000521E628522685369DB435B070BD469B160
:100A800000781061606A401C6062208D401E2085E5
:100A9000608D401E6085208D0028CBD12A463946C6
:100AA000204600F0C1FE0028CAD154F83D0B016871
:100AB00041F400710160202004F81E09E677667792
:100AC0000020C6E7FFE70220C3E700000200100095
:100AD0000000FFFF30B585B0002100910191029127
:100AE00003911E4D03681E4C122103221D48AB4288
:100AF00016D1A36943F00803A361A369039203F02D
:100B000008030493C023CDE900316946FFF768FC70
:100B1000E06940F40010E061E06900F4001019E0C1
:100B2000114DAB4217D1A36943F00803A361A36938
:100B3000039203F0080304934FF44063CDE90031BE
:100B40006946FFF74DFCE06940F48000E061E06930
:100B500000F48000049005B030BD00000054004057
:100B600000100240000C014000580040024881681B
:100B7000027811448160704704000020074810B5D6
:100B8000016841F010010160032000F075F80F20AA
:100B900000F006F800F024F8002010BD002002400C
:100BA00070B50D4D04464FF47A712878B1FBF0F022
:100BB0000A490968B1FBF0F000F0DCFA48B9102CE2
:100BC00007D200222146501E00F036F800206C604B
:100BD00070BD012070BD0000040000201000002046
:100BE0000C4808B5816941F001018161816901F01A
:100BF00001010091C16941F08051C161C06900F0FB
:100C0000805000900448416821F0E06141F000719B
:100C1000416008BD0010024000000140002809DBCF
:100C200000F01F02012191404009800000F1E02006
:100C3000C0F8001170470000F0B40E4B1B680C4662
:100C4000C3F30223C3F10705042D00D90425191DA0
:100C5000072901D2002300E0DB1E012606FA05F178
:100C6000491E214099409E40761E16403143F0BCFB
:100C700001F07CBA0CED00E0064900F007020868BC
:100C80004FF6FF03184040EA0220034A1043086071
:100C9000704700000CED00E00000FA052DE9F04778
:100CA0000F46050061D0434E306800F00700B8429F
:100CB00009D2306820F0070038433060306800F017
:100CC0000700B84251D128683B4C810712D5400734
:100CD00003D5606840F4E06060602878000703D5C1
:100CE000606840F4605060606068A96820F0F000BF
:100CF000084360602878C00728D06868012810D0B1
:100D00002168022810D0890700292EDA616821F0B5
:100D1000030101436160FFF753FC804641F28839CB
:100D20000DE021688903EFE78901EDE7FFF748FC53
:100D3000A0EB0801494502D90320BDE8F0876068AF
:100D4000696800F00C00B0EB810FEFD1306800F063
:100D50000700B8420BD9306820F0070038433060F4
:100D6000306800F00700B84201D00120E5E728789C
:100D7000400705D56068E96820F4E06008436060DA
:100D80002878000706D56068296920F4605040EA99
:100D9000C100606000F038F86168084AC1F30311CF
:100DA000515CC8400649086006480068FFF7F8FE35
:100DB0000020C2E700200240001002400A2700087D
:100DC0001000002008000020044805490068496818
:100DD000044AC1F30221515CC84070471000002052
:100DE000001002401A2700080448054900684968B5
:100DF000044AC1F3C221515CC84070471000002072
:100E0000001002401A2700080E4A51680E4801F0EF
:100E10000C03042B11D0082B0FD10C48C1F38343D2
:100E2000C903C05C0AD55168084AC1F34041921E0B
:100E3000515C054A5043B0FBF1F070470449484308
:100E4000704700000010024000127A00FA260008E5
:100E500000093D002DE9F84F040070D02078C04D06
:100E6000C00749D06868C0F38100012807D06868CE
:100E7000C0F38100022809D16868C00306D528683C
:100E8000800339D560680028E7D035E06068B0F5A8
:100E9000803F0BD010B1B0F5A02F11D0286820F4FE
:100EA00080302860286820F4802002E0286840F420
:100EB00080302860606890B1FFF782FB06460AE048
:100EC000286840F480202860F0E700BFFFF778FB37
:100ED000801B642873D828688003F7D50CE0FFF7DF
:100EE0006FFB064605E000BFFFF76AFB801B642826
:100EF000F0D828688003F7D420789A4E80074FF006
:100F000001094FF0000839D5686810F00C0F07D0C0
:100F10006868C0F38100022809D16868C00306D45C
:100F20002868800714D52069012808D110E02069BD
:100F3000B0B1C6F80090FFF743FB074605E00AE1B1
:100F4000FFF73EFBC01B0228C4D828688007F7D5EE
:100F50002868616920F0F80040EAC10028600DE0CF
:100F6000C6F80080FFF72CFB074604E0FFF728FBDC
:100F7000C01B022823D828688007F7D420780007F0
:100F80002CD57948A169D9B1C0F80090FFF718FBBA
:100F9000074604E0FFF714FBC01B02280FD8686A5D
:100FA0008007F7D571484FF4FA510068B0FBF1F0B3
:100FB000009000BF0098411E0091FAD20EE080E040
:100FC000C0F80080FFF7FCFA074604E0FFF7F8FAE4
:100FD000C01B022875D8686A8007F7D420784007BC
:100FE00060D5E8690027C00008D4E86940F0805067
:100FF000E861E869012700F0805000905C480168D2
:10100000C90513D40168834641F480710160FFF77C
:10101000D7FA824606E000BFFFF7D2FAA0EB0A003B
:1010200064284ED8DBF80000C005F5D5E06801283B
:101030000AD008B1052813D0286A20F001002862E0
:10104000286A20F0040002E0286A40F001002862CB
:10105000E06841F2883B98B1FFF7B2FA82460BE0B4
:10106000286A40F004002862EEE700BFFFF7A8FA04
:10107000A0EB0A0159455AD8286A8007F6D50CE03A
:10108000FFF79EFA824605E0FFF79AFAA0EB0A0105
:1010900059454CD8286A8007F6D41FB1E86920F07A
:1010A0008050E861E06988B36968C1F38101022971
:1010B00044D00228C6F8608004D0FFF781FA0446C5
:1010C00038E034E0FFF77CFA074604E0FFF778FAEF
:1010D000C01B02282BD828688001F7D4206AB0F5FD
:1010E000803F05D16868A16820F40030084368603B
:1010F000D4E908010843696821F474110843686061
:10110000C6F86090FFF75CFA044606E025E000BFF1
:10111000FFF756FA001B022809D828688001F7D586
:101120001BE000BFFFF74CFA001B022802D9032086
:10113000BDE8F88F28688001F4D40EE00128F7D0CC
:101140006868226A00F48031914204D1616A00F437
:101150007010884201D00120EAE70020E8E7000093
:101160000010024000004242800442421000002071
:101170000070004010B5401EB0F1807F01D3012007
:1011800010BD4FF0E02460610F21601700F0EEFF0A
:101190000020A06107202061002010BD704770472B
:1011A00010F8411F4078084370470000F8B5016807
:1011B00004460868CA684B6910F00F0F4FF000052D
:1011C00059D003F0010602F49077374365D0C10788
:1011D00005D0D10503D5616C41F00101616441077F
:1011E00005D5D90703D0616C41F002016164810724
:1011F00005D5D90703D0616C41F004016164010792
:1012000007D502F02001314303D0616C41F00801A1
:101210006164616C00293AD0800604D5900602D53D
:10122000204600F076FE20684069616CC0F38010B3
:10123000090700D460B3204600F044FE20684069EE
:10124000400621D52068143050E8001F21F04001ED
:1012500040E80012002AF5D1E06BA8B16D49416366
:10126000E06BFFF75FF8002811D0E06B416B01B035
:10127000BDE8F040084783060FD593060DD52046FC
:10128000BDE8F84000F045BE2046FFF788FFF8BDF6
:101290002046FFF784FF6564F8BD266B2023012EEE
:1012A0007CD1C6067AD5D60678D5086848680090FD
:1012B00048694FF00206400640D5E16B0868406877
:1012C0000004000CE8D0A28D8242E5D9E08588694F
:1012D00020282DD020680C3050E8001F21F48071A8
:1012E00040E80012002AF5D12068143050E8001FB1
:1012F00021F0010140E80012002AF5D120681430E5
:1013000050E8001F21F0400140E80012002AF5D10A
:1013100084F84230256320680C3050E8001F21F02B
:10132000100140E80012002AF5D1E06BFEF7D7FF6C
:101330006663A08DE18D401A81B22AE0A08DE18D17
:10134000401A81B2E08D0028A6D00029A4D02268DE
:101350000C3252E8000F20F4907042E80007002F92
:10136000F5D12068143050E8002F22F0010240E847
:101370000027002FF5D184F84230256320680C3017
:1013800050E8002F22F0100240E80023002BF5D196
:1013900066632046FFF702FFF8BDFFE705062BD581
:1013A000150629D594F841002128F5D1A068B0F59B
:1013B000805F01D12069B0B1206A411C216221689F
:1013C00000784860E08C401E0004000CE084E3D10B
:1013D0002068C16821F08001C1602068C16841F0C7
:1013E0004001C160D8E7206A0088C0F30800486067
:1013F000206A801C2062E5E74006CDD55006CBD59B
:10140000CA68204622F04002CA6084F8413000F0E9
:1014100020F9C1E7B51E000870B5040004D094F8A7
:101420004100002510B106E0012070BD84F8405055
:10143000204600F023F8242084F841002068C16889
:1014400021F40051C160204600F0C4FD206801690C
:1014500021F4904101612068416921F02A01416134
:101460002068C16841F40051C1606564202084F89F
:10147000410084F842006563002070BD30B585B03E
:10148000002400940194029403940068184988424F
:101490002CD11848816941F480418161816901F44E
:1014A00080410491816941F0040181618069124D9C
:1014B00000F0040004904FF40070009002200190AE
:1014C0000320039069462846FEF78AFF2815CDE9D8
:1014D0000004694628460294FEF782FF0022114666
:1014E0002520FFF7A9FB2520FFF798FB05B030BDAD
:1014F00000380140001002400008014090F84230DE
:10150000202B01D00220704721B11AB100230363C0
:1015100000F0BCBD012070472DE9F04100681F4973
:10152000884239D11E4C00258E1520784FF6FF7762
:10153000FF280BD3257031461A48FEF70CFE3B46B8
:101540000A2219A11B4800F037F81DE015496278FE
:101550000A54401CC2B28818227010F8011C0A29D3
:1015600012D110F8020C0D280ED13B460D4911483E
:1015700000F022F80F48FFF713FE2128FAD025705B
:1015800031460848FEF7E7FDBDE8F0410449012275
:10159000491C0848FFF7B2BFBDE8F08100380140A0
:1015A00000000020C8000020CAFDBEDDD2E7B3F66F
:1015B00000000000C80100202DE9F843044690F81F
:1015C00041001F4616460D46202802D00220BDE8E5
:1015D000F8837DB176B100206064212084F8410059
:1015E000FEF7EEFFA6848046E684A068B0F5805F33
:1015F00002D003E00120EAE7206910B12E46002561
:101600000EE000260CE08021204600F05AFDA0B933
:10161000AEB116F8010B21684860E08C401EE084F2
:10162000E08C43464FF0000200970028EBD14FF0CA
:101630004001204600F045FD30B10320C7E735F8F2
:10164000020BC0F30800E6E7202084F841000020E8
:10165000BDE77047FEE701684A69D24352050FD4DF
:101660006FF480624A61002140F8301F20224273EB
:101670008173026942F00402026101730120704724
:10168000002070472DE9F84F0446006889460B9DFD
:1016900001689846174641F480610160206801683E
:1016A00041F48071016000954FF0011B0022594602
:1016B00020460A9B00F0E4F84FF4007A40B120681D
:1016C0000068C00501D5C4F840A00320BDE8F88F2C
:1016D000216809F0FE0008612B46284920460A9A35
:1016E00000F016F9F0BB20684169806900902A4635
:1016F00020460A9900F0A2F940B1206C04283AD1A2
:101700002068016841F40071016034E0FEB2B8F174
:10171000010F09D02168380A08612A4620460A9933
:1017200000F08CF90028E8D1206806612A4620469E
:101730000A9900F083F90028DFD12068016841F49C
:101740008071016000950022594620460A9B00F0F6
:1017500097F80028B3D1216809F0FF0040F001009C
:10176000086100E007E02B46044920460A9A00F091
:10177000CFF80028AAD00120A8E70000020001004D
:101780002DE9F843044600680D46DDE90897016835
:101790009846164641F4807101604B4600224FF096
:1017A00001112046009700F06BF848B120680068EE
:1017B000C00502D54FF4007020640320BDE8F88313
:1017C000216805F0FE0008613B464A46154920465F
:1017D00000F09EF888B920684169806900903A4617
:1017E0004946204600F02AF948B1206C042804D16B
:1017F0002068016841F4007101600120DEE7F5B264
:10180000B8F1010F09D02168300A08613A4649460B
:10181000204600F013F90028E7D120680561002078
:10182000CCE700000200010070B516460D460446E4
:101830001EE02046FFF70FFF08B1012070BD681CB5
:1018400016D0FEF7BDFE801BA84200D885B92068DF
:101850004069C04340070BD5002044F8300F2021D9
:101860006173A073216941F0200121612073E4E7D5
:1018700020684069C0434007DBD4002070BD0000F1
:101880002DE9F047984617460D460446C1F3074632
:10189000DDF820902AE000BFB8F1FF3F26D0FEF728
:1018A0008FFEA0EB0901414502D8B8F1000F1DD110
:1018B0002068012E16D0806925EA00000004000C83
:1018C00012D00020B84211D1002044F8300F20215E
:1018D0006173A073216941F020012161207301200F
:1018E000BDE8F0874069E7E70120EBE72068012EBB
:1018F0000AD0806925EA00000004000C06D0002010
:10190000B842C9D00020EBE74069F3E70120F7E7D0
:101910002DE9F047984616460D4604464FF000095B
:101920004FF0200AC1F3074723E020684069C04315
:10193000400515D42068016841F4007101602168F8
:101940006FF480604861C4F8309084F83DA084F85A
:101950003E90216C41F00401216484F83C9021E028
:10196000701C06D0FEF72CFEA0EB0800B04203D896
:1019700016B1012F1FD021E02068012F15D08069FA
:1019800025EA00000004000C18D000BF44F8309F86
:1019900084F80DA084F80E90216941F020012161A6
:1019A00084F80C900120BDE8F087406925EA00002A
:1019B0000004000CEAD12068406901E020688069D9
:1019C00025EA00000004000CAFD1ECE72DE9F0415E
:1019D000002590460E460446202728E04069C04373
:1019E000C0060CD454F8301B6FF01000486144F866
:1019F00010596777A577206A2062257714E0FEF7F3
:101A0000DFFDA0EB0800B04200D886B9206840692D
:101A1000C04340060BD544F8305F6773A573206957
:101A200040F02000206125730120BDE8F08120688E
:101A30004169C9434906D1D40020F6E770B516467E
:101A40000D4604461EE02046FFF705FE08B10120C2
:101A500070BD681C16D0FEF7B3FD801BA84200D8ED
:101A600085B920684069C04300060BD5002044F8C2
:101A7000300F20216173A073216941F020012161A1
:101A80002073E4E720684069C0430006DBD40020EF
:101A900070BD00000D4808B5816941F020018161E9
:101AA000816901F020010091816941F008018161A3
:101AB000816901F008010091816941F004018161AF
:101AC000806900F00400009008BD00000010024092
:101AD0000D4810B50B4901600C49416000214FF4DD
:101AE00080428160C0E9031241618161C16101628C
:101AF000FEF76CFD002803D0BDE81040FEF7EDBBFB
:101B000010BD00000054004020000020A08601000D
:101B10000D4810B50B4901600C49416000214FF49C
:101B200080428160C0E9031241618161C16101624B
:101B3000FEF74CFD002803D0BDE81040FEF7CDBBFA
:101B400010BD00000058004074000020A086010075
:101B50000C4810B50A4901604FF4E13141600021A1
:101B600081600C22C160C0E904128161C161FFF78C
:101B700053FC002803D0BDE81040FEF7AEBB10BDFB
:101B800000380140C8010020FEE7FEE730B4002124
:101B9000084B0A465FF0000003EBC004401CC0B2D3
:101BA00062548028F8D3491CC9B20829F2D330BC4A
:101BB00000F08CB81002002010B57F2816D83F29FD
:101BC00014D80723A3EBD10301F00701C1F10704E7
:101BD0000121A140064CDBB204EBC000002AC25C2C
:101BE000C9B201D00A4300E08A43C25410BD0000CC
:101BF0001002002010B5C820FEF7E0FB0021AE2047
:101C000000F00EF90021D52000F00AF90021502043
:101C100000F006F90021A82000F002F900213F2081
:101C200000F0FEF80021D32000F0FAF80021084669
:101C300000F0F6F80021402000F0F2F800218D209D
:101C400000F0EEF80021142000F0EAF80021202036
:101C500000F0E6F80021022000F0E2F80021A120C7
:101C600000F0DEF80021C02000F0DAF80021DA20D0
:101C700000F0D6F80021122000F0D2F800218120D7
:101C800000F0CEF80021EF2000F0CAF80021D920A2
:101C900000F0C6F80021F12000F0C2F80021DB209E
:101CA00000F0BEF80021302000F0BAF80021A42096
:101CB00000F0B6F80021A62000F0B2F80021AF2015
:101CC00000F0AEF8BDE81040FFF760BF70B5114EF0
:101CD000002400BF04F1B000C0B2002100F0A0F861
:101CE0000021084600F09CF80021102000F098F830
:101CF0005FF0000506EBC5000121005D00F090F8E3
:101D00006D1CEDB2802DF5D3641CE4B2082CE1D338
:101D100070BD0000100200202DE9FF4F1D460C464B
:101D20008946580700D0012000EBD50069084843D8
:101D3000203A00F0FF0A02F0FF0B002639E00C2DDC
:101D40000FD0102D11D0182D35D11C490BEBCB0025
:101D500001EB80004FF00008875D380609D50D9A29
:101D60000AE00BEB4B001649F2E7164901EB0B10AA
:101D7000F0E70D9890B1002221460098FFF71CFF74
:101D80007806641C070EE4B2A4EB0900A84207D150
:101D900000984C46401CC0B2009008E00122EBE7DE
:101DA00008F1010000F0FF08B8F1080FD5D3761C48
:101DB000F6B25645C3D3BDE8FF8F00008631000858
:101DC00022270008962B00082DE9F84F04461F46ED
:101DD000802016460D46A0EB5709C3F140084FF08E
:101DE000010A16E0A14502D20024E819C5B2A845AF
:101DF00003DA00242546FFF7C9FECDF800A03278AB
:101E00003B4629462046FFF787FF04EB5700C4B244
:101E1000761C307820385E28E4D9BDE8F88F0000C1
:101E200003B5012083B003ABCDE9003002020129E4
:101E30000292034606D0002278210348FEF7B2FD45
:101E400005B000BD4022F7E77400002070477047DE
:101E5000FEF78CBE30B58FB028216846FEF77BF9BF
:101E600014210AA8FEF777F901210804CDE9001032
:101E70000024029402250491CDE907504FF4E010AC
:101E800009906846FEF7E6FF08B172B6FEE70F203C
:101E9000CDE90A054FF48060CDE90C4002210AA883
:101EA0000E94FEF7FBFE002801D072B6FEE70FB0DD
:101EB00030BD704710B5406A0021C185C184FFF76D
:101EC0006EF910BD01680C3151E8002F22F49072B8
:101ED00041E80023002BF5D10168143151E8002FAF
:101EE00022F0010241E80023002BF5D1016B01290A
:101EF00009D101680C3151E8002F22F0100241E8AD
:101F00000023002BF5D1202180F84210002101632D
:101F1000704708B590F84210222901D0022008BD70
:101F200082684FF480539A4201D1016921B1816ADC
:101F30009A421BD04AB10AE00268816A5268C2F331
:101F400008020A80816A891C08E0026972B102688D
:101F5000526802F07F020A70816A491C8162C18D59
:101F6000491E0904090CC18503D01BE002685268B0
:101F7000F1E70168CA6822F02002CA600168CA68F5
:101F800022F48072CA6001684A6922F001024A6143
:101F9000202180F8421000214163026B012A03D006
:101FA000FFF7BAFA002008BD016301680C3151E85F
:101FB000002F22F0100241E80023002BF5D1016828
:101FC0000A68D20602D50A6849680091818DFFF738
:101FD000E5F8E7E770B5044600680169E26821F4B6
:101FE0004051114301612169A068084361690843B8
:101FF0002168CA6841F20C639A430243CA602068B0
:102000004169A26921F44071114341611E49206870
:10201000884202D1FEF7E8FE01E0FEF7D5FE00EBB4
:10202000C00101EB0012606864218000B2FBF0F394
:10203000B3FBF1F36FF018067343B2FBF0F5B2FB9C
:10204000F0F605EB8305322303EB0515B5FBF1F53F
:10205000B6FBF1F605F0F00505EB0615B2FBF0F660
:10206000B2FBF0F0B0FBF1F06FF01802504306EB5A
:10207000800003EB0010B0FBF1F0216800F00F00CE
:102080002844886070BD000000380140816282856C
:10209000C28500214164222180F84210016921B1EA
:1020A0000168CA6842F48072CA6001684A6942F0F5
:1020B00001024A610068C16841F02001C16000204E
:1020C00070472DE9F041984617460E460446069D96
:1020D00027E0681C25D02DB1FEF772FAA0EB0800AE
:1020E000A8421ED920680C3050E8001F21F4D0719E
:1020F00040E80012002AF5D12068143050E8001F93
:1021000021F0010140E80012002AF5D1202084F8D6
:10211000410084F84200002084F840000320BDE81C
:10212000F0812068006836EA000004D00020B84240
:10213000CFD00020F3E70120F9E700000148FFF7C6
:1021400035B80000C8010020FEE700000FB4054BC1
:1021500010B503A9044A029800F028F810BC5DF8F5
:1021600014FB0000992400081C0000200907090E38
:10217000002804DB00F1E02080F80014704700F034
:102180000F0000F1E02080F8141D704702E008C83D
:10219000121F08C1002AFAD170477047002001E0E1
:1021A00001C1121F002AFBD1704700002DE9FF4F2B
:1021B0008DB09B460F460446002606E025280BD02E
:1021C0005A460F999047641C761C20780028F5D158
:1021D00011B03046BDE8F08F0025A846012298498D
:1021E00000E0054314F8013F203B02FA03F00842E7
:1021F000F7D120782E2817D114F8010F45F00405E7
:102200002A280ED06FF02F022078A0F13001092982
:102210000AD808EB880102EB410100EB0108641CBD
:10222000F2E757F8048B641C20786C280DD004DC8E
:102230004C2812D06A2811D104E074280DD07A28D5
:102240000CD10AE045F4001507E0617845F48015EB
:10225000814202D1641C05F58015641C2078692830
:1022600044D008DC0028B3D0582867D063280FD0AA
:10227000642808D13AE0702865D0732812D07528F8
:102280005AD078285AD05A460F999047761CD5E0F4
:1022900017F8040B8DF8000000208DF80100E946C6
:1022A000012003E057F8049B4FF0FF3069074FF01F
:1022B000000501D40AE06D1C45450DDA8542FADBC4
:1022C00019F805100029F6D106E06D1C8542FCDBEB
:1022D00019F805100029F8D12E4404E019F8010B73
:1022E0005A460F9990476D1EF8D2A7E00A200021A8
:1022F000CDE90801C5F3025002280CD001CFC11767
:10230000021E71F100020CDA0023D0EB030063EB34
:1023100001012D2208E0FF1D27F00707F7E8020161
:10232000EEE72A0504D52B228DF8282001223CE077
:10233000EA073AD02022F7E70A2000E01020002127
:10234000CDE9080107E01020002145F00405CDE9A2
:1023500008014FF00808C5F30250022810D001CF41
:1023600000214FF0000A2A0720D52278702A0DD0CC
:10237000DDE908C38CF0100C5CEA030C0CD015E00E
:10238000FF1D27F00707F7E80201EAE740228DF872
:1023900028204FF0010A0CE050EA010306D0302358
:1023A0008DF828308DF82920022292462278582A6A
:1023B00004D024A20DF120090B9209E026A2F9E72E
:1023C000DDE90823FDF7D2FE0B9B9B5C09F8013D7C
:1023D00050EA0102F4D1ADEB090020300890680703
:1023E00001D44FF001080899884503DD0898A8EB4F
:1023F000000000E000208046002506E00AA85A46BA
:10240000405D0F9990476D1C761C5545F6DB04E046
:1024100030205A460F999047761CB8F10001A8F178
:102420000108F5DC05E019F8010B5A460F999047B1
:10243000761C0899481E08900029F4DC641CC4E648
:10244000092801003031323334353637383961628A
:10245000636465660000000030313233343536374E
:1024600038394142434445460000000010B507207A
:1024700000F0D0F820F00801BDE81040072000F07F
:10248000F1B810B5072000F0C5F820F00101BDE853
:102490001040072000F0E6B838B504468DF800007B
:1024A0004FF6FF73012269460248FFF785F8204680
:1024B00038BD0000C8010020FEF760FBFFF7CAFC32
:1024C000FFF7E8FAFFF744FBFFF702FBFFF720FBFB
:1024D000FFF790FBFFF75AFBFDF7E0FE40F6B83040
:1024E000FDF76CFFFDF7CCFE06A0FFF72FFE0122E3
:1024F00008490948FFF702F84FF47A742046FDF7BF
:102500005DFFFBE7696E6974206973204F4B2121E1
:10251000210D0A0001000020C80100201FB5002184
:102520008DF80C106423012203A98DE80E001346D8
:10253000024692210848FEF70DF948B14FF47A732C
:10254000072206A10948FFF737F8FF2004B010BDA5
:102550009DF80C00FAE7000020000020726561641D
:10256000726567206572726F72000000C8010020FA
:1025700001494860704700001400002010B504466F
:10258000032800D90324072000F044F800F0CF000E
:1025900040EA0410C1B2BDE81040072000F062B864
:1025A00010B50446032800D90324042000F032F8B3
:1025B00000F0CF0040EA0410C1B2BDE81040042092
:1025C00000F050B810B50446032800D903240720B2
:1025D00000F020F800F0F90040EA4400C1B2BDE884
:1025E0001040072000F03EB80146052000F03AB840
:1025F00010B50446032800D90324042000F00AF88B
:1026000000F0F30040EA8400C1B2BDE810400420AD
:1026100000F028B870B505460020FFF77FFFC0071F
:1026200002D00220FFF77AFF0D4C0020FFF776FF63
:10263000800703D5616805208847F6E72946012011
:1026400000F034F80020FFF769FFC00704D0BDE8B0
:1026500070400220FFF762BF616805208847F1E7FC
:102660001400002070B5104C0E4605460020FFF700
:1026700055FF800703D5616805208847F6E745F0D8
:102680008001012000F012F80020FFF747FF8007CB
:1026900003D5616805208847F6E73146BDE87040FC
:1026A000012000F003B800001400002013B584B02E
:1026B000012105AACDE900214FF47A740B460246A8
:1026C000029492210648FEF76DF9002805D02346B2
:1026D000072204A10748FEF76FFF06B010BD0000F7
:1026E00020000020777269746572656720657272D8
:1026F0006F720000C80100200102020304050607F2
:1027000008090A0B0C0D0E0F10100000000000004D
:10271000000001020304060708090000000001028E
:1027200003040000000000000000000000000000A2
:1027300000003F40000000000000000030004000AA
:1027400030004000000009000BC03D000BC03D0000
:10275000090018C024407FE02240318000001800AA
:1027600024C01B000D803240018003801C402740A4
:102770001C800740004010006000000000000000C6
:1027800000000000000000001F80204040200000EA
:10279000402020401F8000000000090006001F802C
:1027A000060009000000040004003F80040004004B
:1027B00000000010006000000000000000000400A5
:1027C00004000400040004000000000000400000B9
:1027D000000000000000002001C00600380040009A
:1027E00000001F802040204020401F80000000008B
:1027F00010403FC000400000000018C021402240AF
:1028000024401840000010802040244024401B80B9
:10281000000002000D0011003FC0014000003C809C
:10282000244024402440238000001F802440244072
:102830003440038000003000200027C03800200012
:1028400000001B802440244024401B8000001C000A
:1028500022C0224022401F800000000000000840EB
:102860000000000000000000000004600000000004
:102870000000000004000A00110020804040090010
:102880000900090009000900000000004040208004
:1028900011000A0004001800200023402400180042
:1028A00000001F802040274029401F4000000040BA
:1028B00007C039000F0001C0004020403FC0244045
:1028C00024401B8000001F8020402040204030809A
:1028D000000020403FC0204020401F8000002040DA
:1028E0003FC024402E4030C0000020403FC0244064
:1028F0002E00300000000F00108020402240338066
:10290000020020403FC0040004003FC0204020409F
:1029100020403FC0204020400000006020202020B8
:102920003FC02000200020403FC024400B0030C0AA
:10293000204020403FC020400040004000C03FC039
:102940003C0003C03C003FC0000020403FC00C40A2
:1029500023003FC020001F802040204020401F80D7
:10296000000020403FC024402400180000001F80C9
:102970002140214020E01FA0000020403FC0244013
:10298000260019C0004018C0244024402240318055
:102990000000300020403FC02040300000002000F8
:1029A0003F80004000403F80200020003E0001C0EA
:1029B000070038002000380007C03C0007C038007E
:1029C0000000204039C0060039C02040000020002F
:1029D000384007C0384020000000304021C0264069
:1029E000384020C00000000000007FE04020402070
:1029F0000000000070000C00038000400000000098
:102A0000402040207FE00000000000002000400047
:102A10002000000000000010001000100010001046
:102A20000010000000004000000000000000000056
:102A300002800540054003C0004020003FC0044024
:102A4000044003800000000003800440044006406E
:102A5000000000000380044024403FC0004000000C
:102A600003800540054003400000000004401FC0F3
:102A7000244024402000000002E00550055006508C
:102A8000042020403FC00440040003C00040000078
:102A9000044027C000400000000000100010041097
:102AA00027E00000000020403FC00140070004C0B4
:102AB0000440204020403FC000400040000007C0CC
:102AC000040007C0040003C00000044007C0044025
:102AD000040003C000400000038004400440038061
:102AE0000000041007F004500440038000000000C0
:102AF00003800440045007F00010044007C0024067
:102B0000040004000000000006400540054004C029
:102B10000000000004001F8004400040000004008A
:102B200007800040044007C000400400070004C0C4
:102B3000018006000400060001C0070001C0060075
:102B40000000044006C0010006C00440000004105C
:102B5000071004E00180060004000000044005C0E6
:102B60000640044000000000000004007BE040201C
:102B70000000000000000000FFF000000000000066
:102B800040207BE004000000000040008000400086
:102B900020002000400000000000000000000000B5
:102BA0000000000000000000000000001FCC000C2E
:102BB0000000000000000000080030006000080075
:102BC000300060000000022003FC1E20022003FCF5
:102BD0001E200220000000000E1811043FFF108488
:102BE0000C78000000000F0010840F3800C0077838
:102BF00018840078000000780F8410C411240E9807
:102C000000E4008400080800680070000000000074
:102C100000000000000000000000000007E018189D
:102C2000200440020000000040022004181807E0C1
:102C30000000000000000240024001800FF001800F
:102C40000240024000000080008000800FF80080F9
:102C50000080008000000001000D000E0000000058
:102C60000000000000000000008000800080008064
:102C70000080008000800000000C000C00000000BC
:102C80000000000000000000000600180060018045
:102C9000060018002000000007F0080810041004C7
:102CA000080807F000000000080408041FFC0004E6
:102CB00000040000000000000E0C1014102410444A
:102CC00011840E0C000000000C18100411041104F3
:102CD00012880C700000000000E003200424082487
:102CE0001FFC0024000000001F9810841104110430
:102CF000108810700000000007F00888110411040B
:102D000018880070000000001C00100010FC130068
:102D10001C001000000000000E38114410841084C4
:102D200011440E38000000000700088C10441044C5
:102D3000088807F00000000000000000030C030CEE
:102D4000000000000000000000000001010600007B
:102D5000000000000000000000800140022004107C
:102D60000808100400000220022002200220022095
:102D700002200220000000001004080804100220B5
:102D800001400080000000000E001200100C106CCA
:102D900010800F00000003E00C1813E4142417C483
:102DA000082807D000000004003C03C41C40074072
:102DB00000E4001C000410041FFC110411041104A1
:102DC0000E880070000003E00C18100410041004BA
:102DD00010081C10000010041FFC10041004100444
:102DE000080807F0000010041FFC1104110417C4A8
:102DF00010040818000010041FFC1104110017C073
:102E000010000800000003E00C1810041004104427
:102E10001C780040000010041FFC1084008000801B
:102E200010841FFC10040000100410041FFC100488
:102E300010040000000000030001100110011FFE3B
:102E400010001000000010041FFC11040380146423
:102E5000181C1004000010041FFC100400040004DF
:102E60000004000C000010041FFC1F0000FC1F00E9
:102E70001FFC1004000010041FFC0C04030000E001
:102E800010181FFC100007F00808100410041004AC
:102E9000080807F0000010041FFC10841080108048
:102EA00010800F00000007F0081810241024101CD8
:102EB000080A07F2000010041FFC1104110011C0E1
:102EC00011300E0C000400000E1C1104108410843C
:102ED00010441C3800001800100010041FFC1004DF
:102EE00010001800000010001FF810040004000477
:102EF00010041FF8100010001E0011E0001C0070EC
:102F000013801C0010001FC0103C00E01F0000E0F8
:102F1000103C1FC000001004180C163401C001C082
:102F20001634180C100410001C00130400FC1304C9
:102F30001C00100000000804101C1064108413040E
:102F40001C04101800000000000000007FFE40027A
:102F5000400240020000000030000C0003800060CE
:102F6000001C0003000000004002400240027FFEFF
:102F700000000000000000000000200040004000B1
:102F800040002000000000010001000100010001DC
:102F9000000100010001000040004000200000008E
:102FA00000000000000000000098012401440144DA
:102FB000014400FC000410001FFC0088010401040F
:102FC0000088007000000000007000880104010407
:102FD0000104008800000000007000880104010462
:102FE00011081FFC0004000000F8014401440144E2
:102FF000014400C800000000010401040FFC11049A
:10300000110411001800000000D60129012901292E
:1030100001C90106000010041FFC0084010001002A
:10302000010400FC000400000104190419FC000460
:10303000000400000000000000030001010119016C
:1030400019FE0000000010041FFC0024004001B421
:10305000010C010400000000100410041FFC000417
:10306000000400000000010401FC0104010001FC57
:103070000104010000FC010401FC008401000100C6
:10308000010400FC0004000000F801040104010434
:10309000010400F80000010101FF008501040104A2
:1030A0000088007000000000007000880104010426
:1030B000010501FF00010104010401FC0084010479
:1030C000010001800000000000CC01240124012443
:1030D00001240198000000000100010007F801042C
:1030E000010400000000010001F8000400040004D5
:1030F000010801FC0004010001800170000C0010B7
:1031000001600180010001F0010C003001C00030BD
:10311000010C01F0010000000104018C0074017039
:10312000018C01040000010101810171000E0018F1
:1031300001600180010000000184010C01340144A0
:103140000184010C000000000000000000000100EC
:103150003EFC400240020000000000000000FFFFB3
:103160000000000000000000400240023EFC0100A0
:1031700000000000000000006000800080004000AF
:1031800040002000200000000000000000000000BF
:10319000000000000000000000000000000000002F
:1031A000000000000000000000000000000000001F
:1031B0000000000000000000000F80380FFE380FF4
:1031C0008038000000000000000000000000000047
:1031D000000000000100000600000C0000380000A4
:1031E0003100000600000C00003800003000000034
:1031F00000000000000061800067F807F9800061AE
:10320000800061800061800061800067F807F980BC
:1032100000618000000000000000000001C0E00329
:10322000E0F00630080418081FFFFE040E080787A8
:10323000F00381E000000000000001F000060C0037
:10324000040408060C7001F9C0000E00003BE00009
:10325000EC18070808040C180003E0000000000147
:10326000E00007F003F818041C0804170807E1D071
:1032700003C0E00023B0003C08002008000010005C
:1032800000000000000100003100003200001C00BE
:10329000000000000000000000000000000000002E
:1032A000000000000000000000000000000000001E
:1032B0000000000000007F0001FFC00780F00C004C
:1032C000181000042000020000000000002000028E
:1032D0001000040C00180780F001FFC0007F000000
:1032E00000000000000000000000000000000000DE
:1032F00000004200006600006600003C000018006C
:1033000003FFC0001800003C0000660000660000DB
:10331000420000000000080000080000080000084B
:103320000000080001FFC0000800000800000800BD
:10333000000800000800000000000001000031004B
:10334000003200001C00000000000000000000002F
:103350000000000000000000000000000000080065
:103360000008000008000008000008000008000035
:10337000080000080000080000080000000000002D
:103380000000000000003800003800003800000095
:10339000000000000000000000000000000000002D
:1033A000000000000000000600001C00007000018A
:1033B00080000E0000380000C0000700001C000064
:1033C000300000000000000000007F8001FFE003EB
:1033D0008070060018040008040008060018038026
:1033E0007001FFE0007F800000000000000000008E
:1033F00001000801000801000803FFF807FFF800BA
:1034000000080000080000080000000000000000A4
:103410000001C03802C058040098040118040218C2
:10342000040418061C1803F81801E0F80000000056
:10343000000000000001C0E003C0F0040008040820
:103440000804080806180803F41801E7F00001E072
:10345000000000000000000000000300000D00005C
:10346000110000610000810803010807FFF80FFF49
:10347000F80001080001080000000000000000E062
:1034800007FCD006080806100806100806100806F3
:103490001838060FF00607C000000000000000000A
:1034A00000003F8001FFE003843002081804100888
:1034B000041008041008071810030FF00007C000DC
:1034C000000000000000000003C00007000006002C
:1034D000000600F80607F806180006E000070000DE
:1034E00006000000000000000001E1E003F7F00624
:1034F0003410041808041808040C08040C080616F4
:103500001803F3F001C1E000000000000000F80023
:1035100003FC30030638040208040208040208040D
:1035200004100308F001FFC0007F0000000000004D
:1035300000000000000000000000000000007038E3
:10354000007038007038000000000000000000002B
:10355000000000000000000000000000000000006B
:103560000000301A00301C000000000000000000C5
:103570000000000000000000000000000008000043
:103580001400002200004100008080010040020081
:1035900020040010080008000000000000002100C6
:1035A0000021000021000021000021000021000076
:1035B0002100002100002100002100000000000087
:1035C0000000000008000804001002002001004074
:1035D000008080004100002200001400000800006C
:1035E000000000000003C00004C000040000080048
:1035F00038080F380808380810000C300007E000C1
:1036000003C000000000000000003F8000FFE00356
:103610008070020F1006708804C088048308047F3D
:103620008802C09003012000FE400000080000183E
:103630000001F8003E0801C20007020007E2000096
:10364000FE00001FC80001F8000038000008040058
:103650000807FFF807FFF80408080408080408082A
:1036600004080806180803F41801E7F00001E00058
:103670000000000000003F8001FFE00380700200B6
:1036800018040008040008040008040010060020C4
:103690000780C000000004000807FFF807FFF804D7
:1036A0000008040008040008040018020010038049
:1036B0007001FFE0007F8000000004000807FFF8B1
:1036C00007FFF804080804080804080804080804A8
:1036D0003E08040008060018010060000000040015
:1036E0000807FFF807FFF8040808040800040800AA
:1036F000040800043E0006000006000001800000EF
:103700000000000000003F8001FFE0038070060021
:10371000180400080402080402080203F00783F0FA
:1037200000020000020004000807FFF807FFF80489
:10373000080800080000080000080000080004084D
:103740000807FFF807FFF804000800000000000069
:1037500004000804000804000807FFF807FFF80445
:103760000008040008040008000000000000000039
:103770000000000600000700000104000104000131
:1037800004000307FFFE07FFFC0400000400000420
:10379000000004000807FFF807FFF8040C080018F1
:1037A00000003E0004C7800503C80600F804003886
:1037B00004001800000804000807FFF807FFF804D9
:1037C00000080000080000080000080000080000D1
:1037D0000800001800006000000004000807FFF85F
:1037E00007800807FC00007FC00003F80007C00046
:1037F000780007800807FFF807FFF80400080400B6
:103800000807FFF807000803C00000E000003800C8
:10381000001E000007000001C00400F007FFF804CC
:103820000000000000007F8001FFE00380700600C0
:103830001804000804000806001803003001FFE027
:10384000007F8000000004000807FFF807FFF8046D
:103850000408040400040400040400040400060C2A
:103860000003F80001F000000000000000007F806D
:1038700001FFE00380700600880400880400C80689
:10388000003C03003E01FFE6007F840000000400CE
:103890000807FFF807FFF8040808040800040C00F4
:1038A000040F00040BC00610F003F03801E008001C
:1038B000000800000001E0F803F0300630100418A2
:1038C00008041808040C08040C080206180207F083
:1038D0000781E000000001800006000004000004F1
:1038E000000004000807FFF807FFF80400080400C0
:1038F0000004000006000001800004000007FFE053
:1039000007FFF0040018000008000008000008008D
:10391000000800000804001007FFE0040000040095
:103920000006000007E00007FE00041FE00001F8A9
:103930000000380001E0043E0007C000060000045B
:10394000000004000007E00007FFC0041FF80007A4
:10395000C007F80007FF80043FF80007C004F80024
:10396000070000040000000000040008060018071B
:10397000C07805F1C8003E00001F800463E807809E
:10398000F80600180400080000000400000600000B
:1039900007800007E008047C08001FF80007F80013
:1039A000180804E0080700000600000400000000FA
:1039B000000100080600380400F80403E8040F08BA
:1039C000047C0805F00807C0080700180400600020
:1039D00000000000000000000000000000000000E7
:1039E000003FFFFE20000220000220000220000213
:1039F0002000020000000000000000000800000796
:103A0000000000C0000038000006000001C00000F7
:103A10003000000E00000100000000000000000067
:103A20002000022000022000022000022000023FAD
:103A3000FFFE000000000000000000000000000089
:103A4000000000000000000800001000003000002E
:103A500020000030000010000008000000000000FE
:103A60000000000001000001000001000001000052
:103A70000100000100000100000100000100000140
:103A80000000010000010000000000000000002014
:103A900000002000001000001000000000000000E6
:103AA000000000000000000000000000000000F026
:103AB0000019F8001B18002208002608002408003E
:103AC0002410003FF8001FF8000008000018000054
:103AD0000004000007FFF80FFFF00018180010089E
:103AE000002008002008003018001FF0000FC00060
:103AF00000000000000007C0001FF0001830002088
:103B000008002008002008003C08001C100000608D
:103B10000000000000000000000007C0001FF000CF
:103B2000381800200800200800200804101007FFA3
:103B3000F80FFFF00000100000000000000000007F
:103B40000007C0001FF000123000221800220800F9
:103B50002208003208001E10000E200000000000A5
:103B60000000200000200800200801FFF803FFF8F3
:103B70000620080420080420080720000300000095
:103B8000000000000000000E000E6E001FF3003168
:103B9000B10020B10020B1003191001F13002E1E92
:103BA00000200E00300000000004000807FFF80F9E
:103BB000FFF8001008002000002000002008003F4F
:103BC000F8001FF8000008000000000000000000DE
:103BD000002008002008002008063FF8063FF800F3
:103BE00000080000080000080000000000000000BD
:103BF000000000000000030000030020010020017D
:103C0000002003063FFE063FFC000000000000000D
:103C1000000000000004000807FFF80FFFF8000193
:103C200088000300002FC00038F80020380020086A
:103C3000000008000000000000000000040008046C
:103C4000000804000807FFF80FFFF8000008000054
:103C500008000008000000000000002008003FF8F5
:103C6000003FF8001008002000003FF8003FF80077
:103C70001008002000003FF8003FF8000008000096
:103C800000002008003FF8003FF800100800100076
:103C9000002000002008003FF8001FF80000080086
:103CA00000000000000007C0000FF00018300030D6
:103CB00008002008002008003008001830000FF02D
:103CC0000007C0000000000000002001003FFF00CE
:103CD0003FFF0010110020090020080020080030DC
:103CE00038001FF0000FC00000000000000007C0F7
:103CF000001FF000381800200800200800200900EC
:103D00001011001FFF003FFF000001000000002015
:103D100008002008002008003FF8003FF8000808CD
:103D200000100800200800200000300000300000D3
:103D30000000000000000000000C78001E18003396
:103D4000080023080021080021880021980030F095
:103D5000003860000000000000002000002000008B
:103D6000200000FFF003FFF80020080020080020DA
:103D700008000030000000000000000000002000EB
:103D8000003FF0007FF80000180000080000080065
:103D90002010003FF8007FF000001000000000003D
:103DA00000002000003000003C00003F800023F0B5
:103DB000000078000070002380003C00003000000C
:103DC0002000002000003C00003FE00023F800003D
:103DD000E0002700003E00003FE00021F80001E085
:103DE000003E000020000000000020080020080025
:103DF0003838003E680027800003C8002CF80038DF
:103E000038002018002008000000000000002000FA
:103E1000003003003C01003F830023EC00007000F1
:103E20002380003C00002000002000000000000073
:103E3000000000000038080020380020F80023E8C7
:103E4000002F88003E08003808002018000070008D
:103E50000000000000000000000000000000000062
:103E6000000008000014001FF7FC300006200002CC
:103E70000000000000000000000000000000000042
:103E80000000000000000000FFFFFF000000000035
:103E90000000000000000000000000000000000022
:103EA0002000023000061FF7FC001400000800008C
:103EB0000000000000000000000000000000000002
:103EC00000180000600000400000400000200000DA
:103ED0001000000800000400000400000C000010A6
:103EE00000000000043F0008000000202000000047
:103EF0008C210008243F000820000020F009000069
:103F00009C210008000000000100000010000000DB
:103F1000000000000024F400000000000000000089
:043F2000000000009D
:04000005080000ED02
:00000001FF
